:020000040000FA
:060000000A128A110C280F
:10000800FE00030EF2000A08F3000A128A111B28E8
:100018000A128A110F28F601F701F801F901831273
:100028000313A301A40183010A128A1195280B1C4A
:100038003B288312031306182B287908031D2B2845
:10004800F901F90A770803192B280130F7028618F5
:100058003A287808031D3A28F801F80A0F30770281
:1000680003183A280130F0007008F7070B108312C4
:1000780003138C1D8E281412141B4428941F4E2819
:100088001308F000F1017008A3007108A40014130C
:100098009413141683160313941E14196E288312CE
:1000A80003131308F000F1017008A3007108A400FD
:1000B8008C11141683160313141C5E288312031361
:1000C8001308F0007008F600A630F000F00B6A285C
:1000D80000008B28941E141D8B2883120313130809
:1000E800F000F1017008A3007108A400831603133F
:1000F800141077088312031393001416A630F00027
:10010800F00B842800008316031314188728831221
:1001180003138C1173088A00720E8300FE0E7E0E84
:1001280009000A128A11BB200A128A113030F40021
:100138000030F5000A128A11DA200A128A117708AB
:100148008312031385000618F9018618F801023096
:1001580083120313A2000430A100B930A000A00B41
:10016800B328A10BB328A20BB328BA28A32883125B
:10017800031385018316031788018316031385016A
:100188008312031386010330831603138600831634
:1001980003178901FF308316031395008113033079
:1001A80096008B178B150B100B17080080308316E1
:1001B80003139400740893003630831203139400D9
:1001C8000130831603139100871507168B170B1739
:0E01D800831203138C11831603138C15080079
:04400E00D4E0FFFFFC
:00000001FF
