:020000040000FA
:060000000A128A110C280F
:10000800FE00030EF1000A08F2000A128A111928EC
:100018000A128A110F28F801F901FA018312031351
:10002800A50183010A128A116A28831203138C1D01
:1000380063281412141B2228941F29281308F0007F
:100048007008F90014139413141683160313941EDE
:1000580014194628831203131308F0007008F900D6
:100068008C11141683160313141C362883120313D9
:100078001308F0007008FA00A630F000F00B4228D0
:1000880000006028941E141D6028831203131308AF
:10009800F0007008F9008316031314108312031379
:1000A800250893001416A630F000F00B592800001C
:1000B8008316031314185C28831203138C11720817
:1000C8008A00710E8300FE0E7E0E0900FF30831633
:1000D80003138500860187010A128A11EB200A1290
:1000E8008A1150300A128A11D1200A128A1100305E
:1000F8000A128A11A1200A128A11740883120313A2
:10010800A4007308A3001E08860024088700023094
:1001180083120313A2000430A100B930A000A00B81
:100128009328A10B9328A20B93289A2883120313D0
:100138000608A0002008A5007B28F70008307702F1
:10014800031CA928F301F4010800C530F50075085F
:10015800831203139F057708F50002300310F50D8D
:10016800FF3E031DB2280310750DF60076089F04A4
:100178000630F6003030F500F50BC028F60BC02825
:100188000000831203131F151F19C8281E08F40046
:10019800831603131E08F3000800F3007308831680
:1001A80003139300363083120313940080308316B0
:1001B8000313940001309100871507168B170B174E
:1001C800831203138C11831603138C1508008130D6
:0E01D800831203139F00831603139F01080078
:02400E003A3F37
:00000001FF
