:020000040000FA
:100000000A128A11F52F00308A000408840A820738
:1000100000345334313420342034533432342034D7
:1000200020342034203453343334003448344F34B3
:0E0030004C34413400342E3400345634003445
:10073A000A128A11BB2383160313111408000A1222
:10074A008A11BB2383160313111508000A128A1192
:10075A00BB2370088312031393000800640080010E
:10076A00840A0406031900340406B42B83160313FF
:10077A001419BB2B11081F3903190800BB2BF100F0
:10078A008312031308177108860088170D30F000CA
:10079A00F00BCD2B83120313881308008312031363
:1007AA0086018316031789018316031386018312B0
:1007BA000313880183160313880183120313850127
:1007CA008316031385018316031788010800003076
:1007DA00F000F1000A128A1192240A128A110130D9
:1007EA00F0000030F1000A128A1192240A128A11CA
:1007FA000630F5003030F400F40B012CF50B012C17
:10080A000000080074037504031D1B2C76087F3E44
:10081A00F80077080318013E003EF9007908F10054
:10082A007808F0000A128A1192240800023074062D
:10083A007504031D08007608BF3E0D2CF401F5016E
:10084A00701C2D2C7208F4070318F50A7308F507B3
:10085A0001300310F20DF30DFF3E031D2E2C013063
:10086A000310F10CF00CFF3E031D352C70087104C7
:10087A00031D252C7508F1007408F0000800F40027
:10088A00F201F3017208740784000A128A11032024
:10089A000A128A11003A03190800720874078400C0
:1008AA000A128A1103200A128A110A128A11C4230F
:1008BA000A128A110130F2070318F30A0030F3070B
:1008CA00472C0A128A11BB230A128A1183160313B0
:1008DA0091150A128A11BB230A128A118312031371
:1008EA001308F200F3017208F4007308F5000A1203
:1008FA008A11BB230A128A1170037104031D892C01
:10090A008316031391128C2C831603139116111656
:10091A007508F1007408F000080083120313081325
:10092A000730F3007D30F200F20B992CF30B992C6F
:10093A008312031388170730F3007D30F200F20B9D
:10094A00A42CF30BA42C700883120313860007301F
:10095A00F3007D30F200F20BB02CF30BB02C8312B3
:10096A00031388130730F3007D30F200F20BBB2C1F
:10097A00F30BBB2C08002830831203139400831650
:10098A0003139101831203133008B4003108B50030
:10099A003208B6003308B70002300310B40DB50DA3
:1009AA00B60DB70DFF3E031DD22C3708F3003608EB
:1009BA00F2003508F1003408F0000030F7003D304D
:1009CA00F6000930F5000030F4000A128A11F62404
:1009DA007008FF3E831603139300940187150716C8
:1009EA0008000030FC000030FB000030FA00003044
:1009FA00F900730872047104700403194B2DFD0188
:100A0A00FD0AF31B162D0130F8000310F00DF10D4D
:100A1A00F20DF30DF80B0A2D0130F8007808FD07E6
:100A2A00062D0130F8000310F90DFA0DFB0DFC0D2F
:100A3A00F80B182D73087702031D2D2D7208760204
:100A4A00031D2D2D71087502031D2D2D70087402CA
:100A5A00031C3E2D7008F4027108031C710FF50285
:100A6A007208031C720FF6027308031C730FF70255
:100A7A00791401300310F30CF20CF10CF00CFF3E68
:100A8A00031D3F2D0130FD02031D162D7C08F300C6
:100A9A007B08F2007A08F1007908F0000800F200F9
:100AAA007B2D3030772D3130772D3230772D333022
:100ABA00772D3430772D3530772D3630772D373006
:100ACA00772D3830772D3930772D4130772D4230D8
:100ADA00772D4330772D4430772D4530772D4630AA
:100AEA00772DD630F0007008F300B52D7208F000AB
:100AFA00F1017108003A0319832D762D7008003A26
:100B0A000319562D013A0319582D033A03195A2D80
:100B1A00013A03195C2D073A03195E2D013A0319AC
:100B2A00602D033A0319622D013A0319642D0F3A15
:100B3A000319662D013A0319682D033A03196A2D20
:100B4A00013A03196C2D073A03196E2D013A03195C
:100B5A00702D033A0319722D013A0319742D762D5B
:100B6A00730808001A30F500F830F400F40BBB2DB6
:100B7A00F50BBB2D00003030F0000030F1000A12F6
:100B8A008A1192240A128A110730F5007D30F40086
:100B9A00F40BCD2DF50BCD2D3030F0000030F100E7
:100BAA000A128A1192240A128A112130F400F40BD3
:100BBA00DC2D3030F0000030F1000A128A11922444
:100BCA000A128A112130F400F40BE92D3830F000B2
:100BDA000030F1000A128A1192240A128A11113085
:100BEA00F400F40BF62D00000830F0000030F1009C
:100BFA000A128A1192240A128A111130F400F40B93
:100C0A00042E00000130F0000030F1000A128A11AF
:100C1A0092240A128A110430F500E430F400F40B2D
:100C2A00142EF50B142E00000630F0000030F100EF
:100C3A000A128A1192240A128A111130F400F40B52
:100C4A00242E00000C30F0000030F1000A128A1144
:100C5A0092240A128A111130F400F40B322E000089
:100C6A00080083120313B000313084000630FF00FD
:100C7A0083138001840AFF0B3D2E3008F800F90126
:100C8A007808F0007908F1007708FA00FB017A0881
:100C9A00F2007B08F3000A128A1123240A128A112D
:100CAA00710883120313B8007008B7007608F800B9
:100CBA00F90179083802031D642E78083702031CEB
:100CCA00762E3108013EB10032080318013E003E7B
:100CDA00B20076083702B7003808031C3803B80098
:100CEA005B2E3808F1003708F0000A30F2000030B5
:100CFA00F3000A128A1123240A128A117108831234
:100D0A000313B8007008B7007608F800F9017908EB
:100D1A003802031D922E78083702031CA42E3308CA
:100D2A00013EB30034080318013E003EB4007608C1
:100D3A003702B7003808031C3803B800892E380870
:100D4A00F1003708F0000A30F2000030F3000A120E
:100D5A008A1123240A128A11710883120313B80014
:100D6A007008B7007608F800F90179083802031DFF
:100D7A00C02E78083702031CD22E3508013EB50072
:100D8A0036080318013E003EB60076083702B7005F
:100D9A003808031C3803B800B72E313008000A128D
:100DAA008A11D3230A128A110A128A11B7250A1242
:100DBA008A110A128A11EC230A128A110130F400EC
:100DCA000030F5000130F6000030F7000A128A11EF
:100DDA0007240A128A1101300A128A1144240A12BB
:100DEA008A11003083120313B3000130B200863037
:100DFA00B100A030B0000A128A11C0240A128A1166
:100E0A000A128A119D230A128A113130F000003029
:100E1A00F1000A128A11AB230A128A110030F0007B
:100E2A00F1000A128A1166240A128A1170088312C2
:100E3A000313B9003908AF000A128A11A4230A124F
:100E4A008A11823083120313BA00DD30B900B90B5C
:100E5A002C2FBA0B2C2F0A128A119D230A128A11DF
:100E6A005130F0000030F1000A128A11AB230A1245
:100E7A008A110030F000F1000A128A1166240A125F
:100E8A008A11700883120313B9003908AE000A12D6
:100E9A008A11A4230A128A11823083120313BA0018
:100EAA00DD30B900B90B572FBA0B572F8312031332
:100EBA002F088500FF30B9003908F6000530BA005E
:100ECA003A08F7002E080A128A1136260A128A11DF
:100EDA0083120313BB003B08AC000230F40000305D
:100EEA00F5000230F6000030F7000A128A110724D2
:100EFA000A128A11831203132F080A128A1154251F
:100F0A000A128A110A128A11C4230A128A11823019
:100F1A0083120313BA00DD30B900B90B922FBA0B52
:100F2A00922F0230F4000030F5000530F600003050
:100F3A00F7000A128A1107240A128A11831203136C
:100F4A002C088400831300080A128A1154250A12F5
:100F5A008A110A128A11C4230A128A1113300A1238
:100F6A008A1144240A128A11831203132C08023E9E
:100F7A008400831300080A128A1154250A128A115E
:100F8A000A128A11C4230A128A11831203132C0823
:100F9A00043E8400831300080A128A1154250A1297
:100FAA008A110A128A11C4230A128A1115300A12E6
:100FBA008A1144240A128A110230F4000030F50022
:100FCA000B30F6000030F7000A128A1107240A12C1
:100FDA008A110E300A128A1144240A128A11052F24
:100FEA0083132030840030300A128A11B32383011C
:060FFA000A128A11D42E38
:04400E00D4E0FFFFFC
:00000001FF
