:020000040000FA
:100000000A128A11F12FFF1B0D2883137F18831703
:100010000008840A0319FF0A080000308A00040857
:10002000840A820700340034003480343F340034C2
:1000300000342034413400340034C83442340034B5
:1000400000347A344434003440341C3446340034B0
:100050005034C33447340034243474344934803445
:10006000963418344B342034BC34BE344C342834E9
:100070006B346E344E34F934023415345034EC346D
:100080007834AD346034CA34F234493471340034D5
:10009000003480343F34CD34CC34CC343D340A3455
:1000A000D73423343C346F34123483343A34173425
:1000B000B734D1343834AC34C53427343734BD3454
:1000C0003734863435349534BF34D63433347734CA
:1000D000CC342B3432345F34703489343034FF34D0
:1000E000E634DB342E340834E5343C341E346034DA
:1000F0004234A2340D3401340034003400340A3464
:100100000034003400346434003400340034E83403
:100110000334003400341034273400340034A03465
:10012000863401340034403442340F340034803497
:100130009634983400340034E134F5340534003416
:10014000CA349A343B345334313420342034533459
:1001500032342034203420342034533433340034C7
:10016000253433342E34313466340034303478342A
:0E01700000342E34003443340034563400344E
:100182008312031308130730F3007D30F200F20BE1
:10019200C828F30BC8288312031388170730F3000B
:1001A2007D30F200F20BD328F30BD32870088312B0
:1001B200031386000730F3007D30F200F20BDF28D4
:1001C200F30BDF288312031388130730F3007D300B
:1001D200F200F20BEA28F30BEA2808008316031355
:1001E200C100A130A5002508AE000130A007FF30F4
:1001F200200784000A128A110D200A128A11A50012
:100202002508C40044080319EC2F253044060319BD
:100212000C294408E12FB501B601B301B40120084D
:1002220084000A128A110D200A128A110A168A15EE
:10023200F1200A128A11031C5C2983160313B501EB
:10024200B6010A30F0000030F100831603133608BD
:10025200F3003508F2000A168A155E210A128A1185
:10026200710883160313B6007008B50020088400D5
:100272000A128A110D200A128A11D03EA500FF30FF
:1002820003180030A6002508B5070318B60A260889
:10029200B6070130A5002508A007200884000A122D
:1002A2008A110D200A128A110A168A15F1200A12E1
:1002B2008A110318222983160313200884000A12C4
:1002C2008A110D200A128A112E3A031DA929341708
:1002D2000130A5002508A007C201C301200884003F
:1002E2000A128A110D200A128A110A168A15F120A1
:1002F2000A128A11031CAF29831603134308F10063
:100302004208F0000A30F2000030F3000A168A15A3
:100312005E210A128A1183160313200884000A122E
:100322008A110D200A128A117007A50000300318E5
:1003320001307107A6002508D03EC2002608031826
:10034200013EFF3EC3000130A5002508A0076F292A
:10035200C201C3013416AF293415CB2901308316EB
:100362000313A007FF30200784000A128A110D2010
:100372000A128A11C400A500A6012608003A031930
:10038200C329F6282508003A0319EC2F663A031907
:10039200AD29F62800303305A50007303405A60044
:1003A2002508260403193D2F341EDB290630C2001E
:1003B2000030C3002E08840083130008BD00840AA5
:1003C2000008BE00840A0008BF00840A0008C000BA
:1003D2000430A5002508AE074008F3003F08F200EC
:1003E2003E08F1003D08F0000030F7000030F60052
:1003F2000030F5000030F4000A168A156C250A1246
:100402008A110318212A831603134008F3003F08B8
:10041200F2003E08F1003D08F0000A168A15E820B5
:100422000A128A11730883160313C0007208BF00F0
:100432007108BE007008BD000330B3040030B4047C
:1004420083160313BB01BC014008F3003F08F2000E
:100452003E08F1003D08F0000030F7000030F600E1
:100462000030F5000030F4000A168A15D1220A1273
:100472008A110318252B0310831603133F0D400D19
:10048200823EBB00FF3003180030BC00FF30BB07C8
:100492000318BC0AFF30BC070330F0000030F10043
:1004A2003C08F3003B08F2000A168A155E210A1284
:1004B2008A11710883160313BC007008BB000A304E
:1004C200F7000030F8003C08FA003B08F9000A1671
:1004D2008A1564230A128A11780883160313BC0052
:1004E2007708BB00BC1F7B2AFF30BB070318BC0A7E
:1004F200FF30BC073B03FF3A0A128A15B7240A12DF
:100502008A1183120313410883160313BA0083125C
:100512000313400883160313B900831203133F0821
:1005220083160313B800831203133E0883160313C2
:10053200B700400883120313A700831603133F0872
:1005420083120313A600831603133E0883120313B8
:10055200A500831603133D0883120313A400831618
:1005620003133A0883120313AB00831603133908EB
:1005720083120313AA00831603133808831203138A
:10058200A90083160313370883120313A8000A1263
:100592008A15A2210A128A118312031327088316CD
:1005A2000313BA0083120313260883160313B90038
:1005B20083120313250883160313B800831203134F
:1005C200240883160313B7003A08F3003908F2002F
:1005D2003808F1003708F0003F30F7008030F600AD
:1005E2000030F5000030F4000A168A156C250A1254
:1005F2008A110318042BFF3083160313BB07031859
:10060200BC0AFF30242B831603133A08F30039087F
:10061200F2003808F1003708F0004130F7002030CE
:10062200F6000030F5000030F4000A168A156C2539
:100632000A128A11031C252B013083160313BB07F0
:100642000318BC0A0030BC07831603134308803A20
:10065200FF0080307F02031D302B0D304202031851
:10066200792B8316031342080A168A15FF250A12EC
:100672008A11831203134108D5004008D4003F08B1
:10068200D3003E08D20083160313400883120313DB
:10069200D900831603133F0883120313D80083166D
:1006A20003133E0883120313D700831603133D0876
:1006B20083120313D6000A168A1142210A128A11E2
:1006C20083120313550883160313C0008312031306
:1006D200540883160313BF008312031353088316AF
:1006E2000313BE0083120313520883160313BD00C3
:1006F200831603133C08803AFF0080307F02031DFB
:10070200842B0A303B020318D12B831603134008B3
:10071200F3003F08F2003E08F1003D08F00000300F
:10072200F7000030F6000030F5000030F4000A1641
:100732008A15D1220A128A1103183A2C831603133E
:10074200400883120313D400831603133F08831255
:100752000313D300831603133E0883120313D2003C
:10076200831603133D0883120313D1000A168A1558
:1007720080240A128A118312031354085304520468
:100782005104031D3A2C831603133C08803AFF00E0
:1007920080307F02031DCF2B02303B02031C3A2C18
:1007A200831603133A08F3003908F2003808F100FF
:1007B2003708F0004030F7008930F6007030F5005D
:1007C2005F30F4000A168A156C250A128A11031882
:1007D200EC2BF730ED2BF83083160313BB0703180D
:1007E200BC0AFF30BC073B080A128A15B7240A125A
:1007F2008A1183120313410883160313BA0083126A
:100802000313400883160313B900831203133F082E
:1008120083160313B800831203133E0883160313CF
:10082200B7004008F3003F08F2003E08F1003D081F
:10083200F0003A08F7003908F6003808F5003708E2
:10084200F4000A128A15F8200A128A117308831614
:100852000313B2007208B1007108B0007008AF0053
:100862000030C0000030BF000030BE000030BD00CC
:10087200BE2C83160313400883120313D40083167D
:1008820003133F0883120313D300831603133E0896
:1008920083120313D200831603133D08831203133A
:1008A200D1000A168A1580240A128A1183120313B0
:1008B200540883160313B2008312031353088316DA
:1008C2000313B10083120313520883160313B000FB
:1008D20083120313510883160313AF003208F30087
:1008E2003108F2003008F1002F08F00000300A163B
:1008F2008A119F200A128A11730883120313E900D6
:100902007208E8007108E7007008E6008316031316
:10091200400883120313ED00831603133F0883126A
:100922000313EC00831603133E0883120313EB0038
:10093200831603133D0883120313EA000A168A156D
:100942007F210A128A118312031369088316031383
:10095200C00083120313680883160313BF008312B7
:100962000313670883160313BE008312031366087A
:1009720083160313BD00BB01BC01C401C40A4408B1
:10098200A50001300310A50DFF3E031DC32C03106B
:10099200250D693E84000A128A110D200A128A115D
:1009A200A6000A128A110D200A128A11A7000A1241
:1009B2008A110D200A128A11A8000A128A110D202A
:1009C2000A128A11A90029083202031DF22C2808F2
:1009D2003102031DF22C27083002031DF22C2608D7
:1009E2002F02031CFC2C0130A5002508C4070A3085
:1009F2004406031DC02C44084207A50043080318FF
:100A0200430AA6003B082507A7003C0803183C0A36
:100A12002607A8002708B5022808031CB603B60259
:100A22004208430403191B2DFF30B5070318B60A09
:100A3200FF30B60703303305A50000303405A600A9
:100A420025082604031D3D2D3608803AFF0080301C
:100A52007F02031D2E2D01303502031C442D203050
:100A620083160313A5004108840025088313800020
:100A72000130A5002508C107FF30B5070318B60AE3
:100A8200FF30B607252D0330831603133305A50067
:100A920000303405A6002508260403195B2D2D30ED
:100AA200A500410884002508831380000130A500B9
:100AB2002508C1070130C402440A0319D02D440895
:100AC200A50001300310A50DFF3E031D632D031089
:100AD200250D693E84000A128A110D200A128A111C
:100AE200F0000A128A110D200A128A11F1000A126C
:100AF2008A110D200A128A11F2000A128A110D209F
:100B02000A128A11F3003208F7003108F6003008A1
:100B1200F5002F08F4000A168A15BF230A128A115B
:100B2200730883160313BA007208B9007108B8007B
:100B32007008B7000030F3000030F2000030F1001E
:100B42000A30F0003A08F7003908F6003808F500D4
:100B52003708F4000A128A1503200A128A11730850
:100B620083160313BA007208B9007108B80070083E
:100B7200B7003708303E512D303083160313A500DD
:100B8200410884002508831380000130A500250850
:100B9200C107FF30BB070318BC0AFF30BC073C0883
:100BA200803AFF0080307F02031DD92D01303B02C5
:100BB2000318BD2D831603134308803AFF008030CB
:100BC2007F02031DE62D09304202031CEC2D083082
:100BD20083160313EF2D831603134208A50025087D
:100BE200C4004408A500A6012508C2022608031C69
:100BF200C303C30244080319092E2E30A50041087D
:100C020084002508831380000130A5002508C10750
:100C120044080A128A15B7240A128A11831203138E
:100C2200410883160313AD00831203134008831691
:100C32000313AC00831203133F0883160313AB00A4
:100C4200831203133E0883160313AA002D0883128E
:100C52000313AB00831603132C0883120313AA0099
:100C6200831603132B0883120313A900831603139D
:100C72002A0883120313A800831603134008831261
:100C82000313A700831603133F0883120313A6005E
:100C9200831603133E0883120313A500831603135E
:100CA2003D0883120313A4000A128A15A2210A1214
:100CB2008A11831203132708D4002608D3002508BB
:100CC200D2002408D1000A168A1580240A128A1139
:100CD20083120313540883160313B20083120313FF
:100CE200530883160313B1008312031352088316A9
:100CF2000313B00083120313510883160313AF00CA
:100D02000130C402440A0319382F4408A5000130F7
:100D12000310A50DFF3E031D892E0310250D693E0C
:100D220084000A128A110D200A128A11F0000A1296
:100D32008A110D200A128A11F1000A128A110D205D
:100D42000A128A11F2000A128A110D200A128A115D
:100D5200F3003208F7003108F6003008F5002F08DA
:100D6200F4000A168A15BF230A128A117308831621
:100D72000313BA007208B9007108B8007008B7000E
:100D82000030F3000030F2000030F1000A30F000D1
:100D92003A08F7003908F6003808F5003708F40079
:100DA2000A128A1503200A128A1173088316031382
:100DB200BA007208B9007108B8007008B7003708A5
:100DC200303EA500410884002508831380000130CD
:100DD200A5002508C1074408A50001300310A50D90
:100DE200FF3E031DEF2E0310250D693E84000A12FB
:100DF2008A110D200A128A11F0000A128A110D209E
:100E02000A128A11F1000A128A110D200A128A119D
:100E1200F2000A128A110D200A128A11F300320816
:100E2200F7003108F6003008F5002F08F4000A1226
:100E32008A1503200A128A11730883160313B2005B
:100E42007208B1007108B0007008802E3030A50021
:100E5200410884002508831380000130A50025087D
:100E6200C107FF30C2070318C30AFF30C307420895
:100E720043040319F628272F42084304031D4D2F6C
:100E82003208310430042F04031D4D2F0130C207F4
:100E92000318C30A0030C3074308803A803C031D8D
:100EA200542F4208440203185D2F8316031342088D
:100EB200A5002508C400732F831603134308803A44
:100EC200A50080302502031D682F44084202031842
:100ED200732F831603134408A500A6012508C20038
:100EE2002608C30083160313350836040319892F15
:100EF20003303305A50000303405A600250826047A
:100F02000319892FFF30B5070318B60AFF30B60759
:100F1200341FA42F4308803AA5003608803A2502E0
:100F2200031D952F350842020318A02F83160313C1
:100F32004208B5024308031CB603B602A42F831667
:100F42000313B501B6013608803A803C031DAB2F6E
:100F5200350844020318B92F831603134408A50069
:100F6200A6012508B5022608031CB603B602BD2F4A
:100F720083160313B501B601350836040319D62FBB
:100F82002030A50041088400250883138000013029
:100F9200A5002508C107FF30B5070318B60AFF30C0
:100FA200B60735083604031DC12F03303305A500EB
:100FB20000303405A600250826040319F6282D3032
:100FC200A500410884002508831380000130A50094
:100FD2002508C107F6284108840083138001080010
:100FE20083120313EE01EF018313C8308400EF3044
:0E0FF2000A168A15D72083010A168A11712B60
:10100600730872047104700403194628F901F90A79
:10101600F31B1B280130F8000310F00DF10DF20D43
:10102600F30DF80B0F280130F8007808F9070B28A4
:1010360073087702031D292872087602031D2928E2
:1010460071087502031D292870087402031C3928CB
:101056007008F4027108031C710FF5027208031C74
:10106600720FF6027308031C730FF70201300310A8
:10107600F30CF20CF10CF00CFF3E031D3A28013084
:10108600F902031D1B287708F3007608F20075089D
:10109600F1007408F00008007008F8007108F90003
:1010A6007208FA000310790D7A0DFB007B08831293
:1010B6000313A5002508031D69280030F30000303E
:1010C600F2000030F1000030F00008007408F8006B
:1010D6007508F9007608FA000310790D7A0DFB0001
:1010E6007B08A400240803196028F117FF30F005D7
:1010F600FF30F1050030F205F517FF30F405FF303B
:10110600F5050030F6050030A3000030A2000030DF
:10111600A1000030A0007F30A50298302407F80017
:101126007808A5021830F8007808A4000130F80005
:101136000310A00DA10DA20DA30DF80B9B28760898
:101146007202031DAC2875087102031DAC287408D1
:101156007002031CB9287408F0027508031C750F89
:10116600F1027608031C760AF202201401300310FD
:10117600F00DF10DF20DFF3E031DBA280130A40259
:10118600031D9928A51FDC282508803A973E031CD5
:10119600602801300310A30CA20CA10CA00CFF3E8A
:1011A600031DCD280130F8007808A5070319EF289C
:1011B600CC28183025020318602825080319EF28C3
:1011C6000130F8000310A00DA10DA20DA30DF80B20
:1011D600E5280130A502E0282308F3002208F200E2
:1011E6002108F1002008F00008000310720D730DAD
:1011F600F800780883120313A5002508031D0C299F
:101206000030F3000030F2000030F1000030F00052
:1012160008000310760D770DF8007808A40024085E
:1012260003190329F217FF30F005FF30F105FF30EF
:10123600F2050030F305F617FF30F405FF30F5052B
:10124600FF30F6050030F7050030A3000030A2009D
:101256000030A1000030A0007F30A502A030240796
:10126600F8007808A5022030F8007808A4000130BC
:10127600F8000310A00DA10DA20DA30DF80B3C293B
:1012860077087302031D512976087202031D51293E
:1012960075087102031D512974087002031C622926
:1012A6007408F0027508031C750FF1027608031C1A
:1012B600760FF2027708031C770FF3022014013031
:1012C600F8000310F00DF10DF20DF30DF80B642983
:1012D6000130A402031D3A29A51F86292508803A54
:1012E6009F3E031C032901300310A30CA20CA10C82
:1012F600A00CFF3E031D77290130F8007808A507EA
:10130600031999297629203025020318032925086F
:10131600031999290130F8000310A00DA10DA20DA3
:10132600A30DF80B8F290130A5028A292308F300A3
:101336002208F2002108F1002008F00008008312BC
:10134600031327088039AC002C08B1002708AC002D
:101356002C07AD002D08B700A61B37143708031954
:10136600C129370A031DBF290030A7000030A60097
:101376000030A5000030A400A617C9290030A70038
:101386000030A6000030A5000030A4002B088039EC
:10139600AC002C08B1062B08AC002C07AD002D08BC
:1013A600B600AA1B361436080319E629360A031DA9
:1013B600E4290030AB000030AA000030A90000305C
:1013C600A800AA17EE290030AB000030AA000030B2
:1013D600A9000030A8003608031D3708031DFC29A4
:1013E6000030A7000030A6000030A5000030A400A1
:1013F60008002408AC002C08F0002A080A168A15F2
:10140600A1210A128A15710883120313BD00700800
:10141600BC003C08AC00AD01AE01AF012F08B50021
:101426002E08B4002D08B3002C08B2003D08AC000D
:10143600AD01AE01AF012F08BB002E08BA002D0882
:10144600B9002C08B8002508AC002C08F0002908C3
:101456000A168A15A1210A128A1571088312031326
:10146600BD007008BC003C08AC00AD01AE01AF0188
:101476002C08B2072D0803110318013E031DB307FC
:101486002E0803110318013E031DB4072F0803118C
:101496000318013E031DB5073D08AC00AD01AE01C2
:1014A600AF012C08B8072D0803110318013E031DD0
:1014B600B9072E0803110318013E031DBA072F08AA
:1014C60003110318013E031DBB072608AC002C08B8
:1014D600F00028080A168A15A1210A128A15710831
:1014E60083120313BD007008BC003C08AC00AD01BC
:1014F600AE01AF012C08B2072D0803110318013EF7
:10150600031DB3072E0803110318013E031DB4077C
:101516002F0803110318013E031DB5073D08AC0053
:10152600AD01AE01AF012C08B8072D080311031851
:10153600013E031DB9072E0803110318013E031DC2
:10154600BA072F0803110318013E031DBB07083015
:10155600AC000310B20DB30DB40DB50DAC0BAC2A37
:101566002508AC002C08F00028080A168A15A121C7
:101576000A128A15710883120313BD007008BC0095
:101586003C08AC003D08AD00AE01AF012C08B20727
:101596002D0803110318013E031DB3072E0803117E
:1015A6000318013E031DB4072F0803110318013E5B
:1015B600031DB5072408AC002C08F00029080A16FC
:1015C6008A15A1210A128A15710883120313BD0018
:1015D6007008BC003C08AC003D08AD00AE01AF0190
:1015E6002C08B2072D0803110318013E031DB3078B
:1015F6002E0803110318013E031DB4072F0803111B
:101606000318013E031DB5070830AC000310B20DE8
:10161600B30DB40DB50DAC0B092B2408AC002C088A
:10162600F00028080A168A15A1210A128A157108DF
:1016360083120313BD007008BC003C08AC003D08D3
:10164600AD00AE01AF012C08B2072D080311031837
:10165600013E031DB3072E0803110318013E031DA7
:10166600B4072F0803110318013E031DB50725080B
:10167600AC002C08F0002A080A168A15A1210A12C5
:101686008A15710883120313BD007008BC003C085C
:10169600AC003D08AD00AE01AF012C08B8072D081F
:1016A60003110318013E031DB9072E080311031881
:1016B600013E031DBA072F0803110318013E031D3F
:1016C600BB072608AC002C08F00029080A168A1564
:1016D600A1210A128A15710883120313BD0070082E
:1016E600BC003C08AC003D08AD00AE01AF012C08C3
:1016F600B8072D0803110318013E031DB9072E086C
:1017060003110318013E031DBA072F08031103181E
:10171600013E031DBB072608AC002C08F0002A0872
:101726000A168A15A1210A128A1571088312031353
:10173600BD007008BC003C08AC003D08AD00AE0121
:10174600AF0108300310AC0DAD0DAE0DAF0DFF3E71
:10175600031DA52B2C08B8072D0803110318013EFD
:10176600031DB9072E0803110318013E031DBA070E
:101776002F0803110318013E031DBB073208AC00F6
:101786003308AD003408AE003508AF00183003103A
:10179600AF0CAE0CAD0CAC0CFF3E031DCA2B2C08D7
:1017A600B8072D0803110318013E031DB9072E08BB
:1017B60003110318013E031DBA072F08031103186E
:1017C600013E031DBB070830AC000310B20DB30D7C
:1017D600B40DB50DAC0BE82B37083607AC00AD01E0
:1017E600AD0D2C08823EBC002D080318013EFF3EBD
:1017F600BD00BA1B192C0130AC000310B80DB90D91
:10180600BA0DBB0DAC0B002CB51B38140130AC0067
:101816000310B20DB30DB40DB50DAC0B0B2CFF3090
:10182600BC070318BD0AFF30BD07FC2BB601B51F68
:10183600322CFF303205AC00FF303305AD00FF30EF
:101846003405AE007F303505AF002F082E042D0479
:101856002C0403193818302C322CB601B60A360877
:101866000319642C0130B807003003180130B9079A
:10187600003003180130BA07003003180130BB07E7
:101886003B1C642C3808AC003908AD003A08AE00A1
:101896003B08AF000130B0002F0DAF0CAE0CAD0C05
:1018A600AC0CB00B4F2C2F08BB002E08BA002D082D
:1018B600B9002C08B8000130BC070318BD0A003077
:1018C600BD073D08803AFF0080307F02031D6D2C66
:1018D600FF303C02031C7A2C7F3083120313BB00BB
:1018E6008030BA000030B9000030B800AA2C83124C
:1018F60003133D08803AFF0080307F02031D852CCC
:1019060001303C020318932C003083120313BB00F2
:101916000030BA000030B9000030B800B101AA2C7E
:10192600831203133C08AC002C08B700FF30B8053F
:10193600FF30B9057F30BA050030BB053718BA1736
:101946003708AC0003102C0CAD002D08BB00310885
:10195600AC002C08BB043B08A7003A08A6003908CF
:10196600A5003808A400080083120313D000D01F76
:101976005F2ED009D00A5008803A123E031CA92DCA
:101986000A30F7000030F8005008F200F301F21BAD
:10199600F3036430F0000030F1000A168A151923AB
:1019A6000A128A157108FA007008F9000A168A15D3
:1019B60064230A128A15770883120313C2000130C2
:1019C6000310C20DFF3E031DE32C0310420D593ECA
:1019D60084000A128A110D200A128A15C3000A12FF
:1019E6008A110D200A128A15C4000A128A110D20C6
:1019F6000A128A15C5000A128A110D200A128A15C2
:101A0600C6004608A7004508A6004408A5004308E6
:101A1600A4006430F7000030F8005008F900FA011D
:101A2600F91BFA030A168A1564230A128A1577081F
:101A360083120313C70001300310C70DFF3E031DB9
:101A46001F2D0310470D7D3E84000A128A110D20BA
:101A56000A128A15C8000A128A110D200A128A155E
:101A6600C9000A128A110D200A128A15CA000A1222
:101A76008A110D200A128A15CB004B08AB004A08C2
:101A8600AA004908A9004808A8000A128A15A22136
:101A96000A128A15831203132708CF002608CE00E0
:101AA6002508CD002408CC000A30F0000030F100F3
:101AB6005008F200F301F21BF3030A168A151923E4
:101AC6000A128A15700883120313C200013003102C
:101AD600C20DFF3E031D6A2D0310420D353E8400E4
:101AE6000A128A110D200A128A15C3000A128A11D7
:101AF6000D200A128A15C4000A128A110D200A1234
:101B06008A15C5000A128A110D200A128A15C60006
:101B16004608A7004508A6004408A5004308A400F7
:101B26004F08AB004E08AA004D08A9004C08A800B3
:101B36000A128A15A221831203132708C100260858
:101B4600C0002508BF002408BE0008005008803ADF
:101B5600753E031C342E0A30F0000030F1005008A8
:101B6600F200F301F21BF3030A168A1519230A126F
:101B76008A15700883120313C20001300310C20DC8
:101B8600FF3E031DC12D0310420D353E84000A128F
:101B96008A110D200A128A15C3000A128A110D2015
:101BA6000A128A15C4000A128A110D200A128A1511
:101BB600C5000A128A110D200A128A15C6004608A7
:101BC600A7004508A6004408A5004308A4000A305B
:101BD600F7000030F8005008F900FA01F91BFA0383
:101BE6000A168A1564230A128A15770883120313C4
:101BF600C70001300310C70DFF3E031DFD2D031066
:101C0600470D593E84000A128A110D200A128A15C0
:101C1600C8000A128A110D200A128A15C9000A1272
:101C26008A110D200A128A15CA000A128A110D207D
:101C36000A128A15CB004B08AB004A08AA004908CD
:101C4600A9004808A8000A128A15A22183120313C4
:101C56002708C1002608C0002508BF002408BE00CA
:101C660008005008C20001300310C20DFF3E031DDC
:101C7600372E0310420D353E84000A128A110D20BC
:101C86000A128A15C3000A128A110D200A128A1531
:101C9600C4000A128A110D200A128A15C5000A12FA
:101CA6008A110D20C6004608C1004508C000440838
:101CB600BF004308BE0008005008803A123E031CCD
:101CC6004A2F0A30F7000030F8005008F200F301FE
:101CD600F21BF3036430F0000030F1000A168A1597
:101CE60019230A128A157108FA007008F9000A16F3
:101CF6008A1564230A128A15770883120313C20011
:101D060001300310C20DFF3E031D842E0310420D49
:101D1600253E84000A128A110D200A128A15C30074
:101D26000A128A110D200A128A15C4000A128A1193
:101D36000D200A128A15C5000A128A110D200A12F0
:101D46008A15C6004608A7004508A6004408A5004F
:101D56004308A4006430F7000030F8005008F9008A
:101D6600FA01F91BFA030A168A1564230A128A1560
:101D7600770883120313C70001300310C70DFF3E17
:101D8600031DC02E0310470D493E84000A128A1116
:101D96000D200A128A15C8000A128A110D200A128D
:101DA6008A15C9000A128A110D200A128A15CA005C
:101DB6000A128A110D200A128A15CB004B08AB00B5
:101DC6004A08AA004908A9004808A8000A128A1564
:101DD600A2210A128A15831203132708CF002608A8
:101DE600CE002508CD002408CC000A30F0000030D3
:101DF600F1005008F200F301F21BF3030A168A15EC
:101E060019230A128A15700883120313C2000130BF
:101E16000310C20DFF3E031D0B2F0310420D013EA2
:101E260084000A128A110D200A128A15C3000A12AA
:101E36008A110D200A128A15C4000A128A110D2071
:101E46000A128A15C5000A128A110D200A128A156D
:101E5600C6004608A7004508A6004408A500430892
:101E6600A4004F08AB004E08AA004D08A9004C0874
:101E7600A8000A128A15A221831203132708C1009B
:101E86002608C0002508BF002408BE000800500828
:101E9600803A753E031CD52F0A30F0000030F10061
:101EA6005008F200F301F21BF3030A168A151923F0
:101EB6000A128A15700883120313C2000130031038
:101EC600C20DFF3E031D622F0310420D013E84002A
:101ED6000A128A110D200A128A15C3000A128A11E3
:101EE6000D200A128A15C4000A128A110D200A1240
:101EF6008A15C5000A128A110D200A128A15C60013
:101F06004608A7004508A6004408A5004308A40003
:101F16000A30F7000030F8005008F900FA01F91B02
:101F2600FA030A168A1564230A128A157708831299
:101F36000313C70001300310C70DFF3E031D9E2F7C
:101F46000310470D253E84000A128A110D200A123D
:101F56008A15C8000A128A110D200A128A15C900AC
:101F66000A128A110D200A128A15CA000A128A114B
:101F76000D200A128A15CB004B08AB004A08AA00AE
:101F86004908A9004808A8000A128A15A221831246
:101F960003132708C1002608C0002508BF0024082F
:101FA600BE0008005008C20001300310C20DFF3EFB
:101FB600031DD82F0310420D013E84000A128A1118
:101FC6000D200A128A15C3000A128A110D200A1260
:101FD6008A15C4000A128A110D200A128A15C50034
:101FE6000A128A110D20C6004608C1004508C00025
:0A1FF6004408BF004308BE000800C5
:1020020083120313A000213084000630FF008313E3
:102012008001840AFF0B08282008F800F9017808DB
:10202200F0007908F1007708FA00FB017A08F20063
:102032007B08F3000A168A155E210A168A117108B6
:1020420083120313A8007008A7007608F800F901AC
:1020520079082802031D2F2878082702031C41282B
:102062002108013EA10022080318013E003EA20001
:1020720076082702A7002808031C2803A8002628A0
:102082002808F1002708F0000A30F2000030F300BF
:102092000A168A155E210A168A1171088312031321
:1020A200A8007008A7007608F800F901790828024C
:1020B200031D5D2878082702031C6F282308013EB0
:1020C200A30024080318013E003EA400760827025C
:1020D200A7002808031C2803A80054282808F10098
:1020E2002708F0000A30F2000030F3000A168A15C1
:1020F2005E210A168A11710883120313A800700860
:10210200A7007608F800F90179082802031D8B2838
:1021120078082702031C9D282508013EA5002608F1
:102122000318013E003EA60076082702A7002808F1
:10213200031C2803A800822821300800F800780830
:10214200031DF31FB4287009FA007109FB0072091C
:10215200FC007309FD00FA0A0319FB0A0319FC0AC1
:102162000319FD0ABC287308FD007208FC007108FF
:10217200FB007008FA007308720471047004031DF6
:10218200CB280030F3000030F2000030F1000030C4
:10219200F00008009630F4007408F900FE307D0566
:1021A2000319FC280130F4007408F9070130031008
:1021B200FD0CFC0CFB0CFA0CFF3E031DD828CF28AB
:1021C2000130F4007408F9070130FA0700300318EF
:1021D2000130FB07003003180130FC070030031800
:1021E2000130FD0701300310FD0CFC0CFB0CFA0C56
:1021F200FF3E031DF428FF307D0503191029E12855
:1022020002307902031C12290130F9020130F40074
:102212000310FA0DFB0DFC0DFD0DF40B0929FC1F3B
:10222200012979181C29FF30FA05FF30FB057F30A0
:10223200FC05FF30FD050310F90C7908F400F501E7
:10224200F601F70118300310F40DF50DF60DF70D38
:10225200FF3E031D24297408FA047508FB0476085E
:10226200FC047708FD047808031DF31F3929FD17C4
:102272007D08F3007C08F2007B08F1007A08F00088
:1022820008008312031355088039DA005A08E20065
:102292005508DA005A07DB005B08E400D41B64141B
:1022A200640803196229640A031D5F290030D500FE
:1022B2000030D4000030D3000030D200D417D50152
:1022C2006A290030D5000030D4000030D30000303D
:1022D200D20059088039DA005A08E300630862061E
:1022E200031D62175908DA005A07DB005B08E30096
:1022F200D81B6314630803198C29630A031D8929F7
:102302000030D9000030D8000030D7000030D600AD
:10231200D817D90194290030D9000030D8000030F4
:10232200D7000030D600640863020318DA29621F5E
:102332009E298030DA005A08E2066408DA005A0858
:10234200E5006308DA005A08E4006508DA005A0872
:10235200E3005208DA005A08E5005608DA005A0883
:10236200D2006508DA005A08D6005308DA005A0883
:10237200E5005708DA005A08D3006508DA005A085F
:10238200D7005408DA005A08E5005808DA005A085B
:10239200D4006508DA005A08D8005508DA005A084D
:1023A200E5005908DA005A08D5006508DA005A082B
:1023B200D900E5016308DA00DB015B08DD0064088F
:1023C2005A02DC00031CDD035D08803AFF00803006
:1023D2007F02031DEE291A305C02031C272A831296
:1023E200031355085404530452040319FA29013003
:1023F200FB290030DA005A08E5000030D500003031
:10240200D4000030D3000030D2006308DA005A084A
:10241200E4002D2A651C162A6508DA0003105A0CFE
:102422000138DB005B08E500182A0310E50C52189E
:10243200E5170130DA00550DD50CD40CD30CD20CB3
:10244200DA0B1C2A0130DA005A08E407831203135C
:1024520063086402031C0B2A621B6E2A6408031DB4
:102462003B2A0030D5000030D4000030D3000030C9
:10247200D20008005608D207570803110318013E7C
:10248200031DD307580803110318013E031DD40787
:10249200590803110318013E031DD507551C102BC3
:1024A200651C5C2A6508DA0003105A0C0138DB004F
:1024B2005B08E5005E2A0310E50C5218E5170130AF
:1024C200DA00550DD50CD40CD30CD20CDA0B622ADF
:1024D2000130DA005A08E407102B5508803AFF0051
:1024E2005908803A7F02031D802A58085402031DAE
:1024F200802A57085302031D802A560852020318E5
:10250200D82AFF30DA00FF30DB00FF30DC00FF307A
:10251200DD005608DE005708DF005808E0005908C1
:10252200E1005208DE025308031C530F992A9A2A2B
:10253200DF025408031C540F9F2AA02AE002550808
:10254200031C550FA52AA62AE1025E08DA075F08D6
:1025520003185F0FAD2AAE2ADB0760080318600F6D
:10256200B32AB42ADC0761080318610ADD075D0893
:10257200D5005C08D4005B08D3005A08D200803032
:10258200DA005A08E206E509E50A6508031DE62AAB
:102592000130D207003003180130D307003003188E
:1025A2000130D407003003180130D507E62A560857
:1025B200D2025708031C570FD3025808031C580FA6
:1025C200D4025908031C590FD50255085404530468
:1025D2005204031D0E2B6508031D0E2B0030D5007F
:1025E2000030D4000030D3000030D20008000130A7
:1025F200DA000310D20DD30DD40DD50DDA0BFA2A61
:10260200E51B5214651C072B0314082B0310E50D60
:10261200640803190E2B0130E402D41FF82AE301E7
:10262200E51F1B2B65087F3903195218192B1B2B29
:10263200E301E30A630803194E2B0130D20700308D
:1026420003180130D307003003180130D4070030DB
:1026520003180130D507551C4E2B5208DA005308D7
:10266200DB005408DC005508DD000130DE005D0DA2
:10267200DD0CDC0CDB0CDA0CDE0B382B5D08D50034
:102682005C08D4005B08D3005A08D200640A03191C
:102692004E2B0130DA005A08E407640A031D64086D
:1026A200031D5E2B0030D5000030D4000030D30073
:1026B2000030D20064080319E201641C622BD417B3
:1026C200662B7F30DA005A08D4056408DA0003105A
:1026D2005A0CDB005B08D500E21F0800D517080082
:1026E2000A168A150E210A168A110A168A15ED246F
:1026F2000A168A110A168A1527210A168A1101302A
:10270200F4000030F5000130F6000030F7000A1640
:102712008A1542210A168A119130F2008030F300A4
:102722000A168A1594220A168A110030831203139C
:10273200A3000130A2008630A100A030A0000A163A
:102742008A1522220A168A110A168A15C1200A1629
:102752008A113130F0000030F1000A168A15CF20BC
:102762000A168A110030F000F1000A168A15C421F7
:102772000A168A11700883160313C5004508DE0085
:102782000A168A15C8200A168A1182308316031384
:10279200C600DD30C500C50BCC2BC60BCC2B0A16F0
:1027A2008A15C1200A168A115130F0000030F1005A
:1027B2000A168A15CF200A168A110030F000F1009D
:1027C2000A168A15C4210A168A1170088316031381
:1027D200C5004508DD000A168A15C8200A168A11A6
:1027E200823083160313C600DD30C500C50BF72BFC
:1027F200C60BF72BFF3083160313C5004508F600FE
:102802000530C6004608F7005D080A168A11012045
:102812000A168A1183160313C7004708DC000A163A
:102822008A15C1200A168A110030F000F1000A163A
:102832008A15CF200A168A110730F0000030F10005
:102842000A168A15CF200A168A110A168A15C1207D
:102852000A168A110130F0000030F1000A168A15BA
:10286200CF200A168A110030F000F1000A168A15EC
:10287200C4210A168A11700883160313C50045087D
:10288200DB000030F000F1000A168A15C4210A1696
:102892008A11710883160313D9007008D80000301A
:1028A200F000F1000A168A15C4210A168A1170086E
:1028B20083160313C5004508DA000A168A15C820D4
:1028C2000A168A11823083160313C600DD30C50052
:1028D200C50B692CC60B692C0230F4000030F500E0
:1028E2000130F6000030F7000A168A1542210A1656
:1028F2008A11A430F2008030F3000A168A1594225D
:102902000A168A11831603135E080A168A151D24F5
:102912000A168A110A168A15FF200A168A118230AF
:1029220083160313C600DD30C500C50B962CC60BFB
:10293200962C0230F4000030F5000530F60000302D
:10294200F7000A168A1542210A168A118316031302
:102952005C088400831300080A168A151D240A16CF
:102962008A110A168A15FF200A168A11A730F20068
:102972008030F3000A168A1594220A168A118316E9
:1029820003135C08023E8400831300080A168A15AA
:102992001D240A168A110A168A15FF200A168A11A0
:1029A200831603135C08043E8400831300080A168E
:1029B2008A151D240A168A110A168A15FF200A167C
:1029C2008A11AB30F2008030F3000A168A15942285
:1029D2000A168A11831603135908C6005808C5003F
:1029E2004508C600C5014508D8004608D90042304E
:1029F20083120313E900C830E8000030E70000301A
:102A0200E600C330D5008830D4009330D300333091
:102A1200D2003E30A7004C30A600CC30A500CD300D
:102A2200A400831603135B085807F0005908031823
:102A3200590AF100F201F11BF2037208F3000130AE
:102A42000A168A119F200A168A1173088312031329
:102A5200AB007208AA007108A9007008A8000A1247
:102A62008A15A2210A168A11831203132708D90094
:102A72002608D8002508D7002408D6000A168A118D
:102A820042210A168A11831203135508ED005408D5
:102A9200EC005308EB005208EA000A168A11A52539
:102AA2000A168A1183120313690883160313D700C7
:102AB20083120313680883160313D60083120313C9
:102AC200670883160313D50083120313660883165F
:102AD2000313D4000230F4000030F5000B30F6008E
:102AE2000030F7000A168A1542210A168A119E3012
:102AF20083160313C5004508A0005708A400560812
:102B0200A3005508A2005408A100DF300A128A115E
:102B1200EF200A168A11DF30F2000030F3000A16A5
:102B22008A1594220A168A11DF300A168A15FF20A6
:102B32000A168A11A930F2008030F3000A168A15AB
:102B420094220A168A11A52B831203136D08803969
:102B520083160313A0002008A900831203136D0833
:102B620083160313A0002007A1002108B0008312DE
:102B72000313EC1FBF2D83160313301483160313A4
:102B820030080319D52D300A031DD12D00308312D0
:102B92000313ED000030EC000030EB000030EA00DF
:102BA2008312EC17ED01DF2D003083120313ED00C9
:102BB2000030EC000030EB000030EA006908803998
:102BC20083160313A0002008A906831203136908C1
:102BD20083160313A0002007A1002108B10083126D
:102BE2000313E81FF72D83160313311483160313FF
:102BF200310803190D2E310A031D092E00308312EC
:102C02000313E9000030E8000030E7000030E6007E
:102C12008312E817E901172E003083120313E9002B
:102C22000030E8000030E7000030E6006908680480
:102C320067046604031D3A2E0030ED000030EC00FC
:102C42000030EB000030EA008030EC047F30ED040D
:102C5200831603132908A000200883120313ED042E
:102C62006D08E9006C08E8006B08E7006A08E600F6
:102C72000800831603133008031D4A2E0030831206
:102C82000313E9000030E8000030E7000030E600FE
:102C920008003008A000A1012108A3003108200289
:102CA200A200031CA30322087F3EAA0023080318E4
:102CB200013E003EAB00831203136D08831603131B
:102CC200A800831203136C0883160313A700831250
:102CD20003136B0883160313A600831203136A08F7
:102CE20083160313A500003083120313ED00003096
:102CF200EC000030EB000030EA00003083160313D2
:102D0200AF000030AE000030AD000030AC00B101C9
:102D12001A3031020318042F31080319B62E01307C
:102D2200A0000310A50DA60DA70DA80DA00B922EB5
:102D32000130A000031083120313EA0DEB0DEC0D1A
:102D4200ED0D83160313A00B9B2EAF1FAB2E831228
:102D520003136A14013083160313A0000310AC0D91
:102D6200AD0DAE0DAF0DA00BAF2E8312031369088C
:102D7200831603132802031DD42E8312031368083B
:102D8200831603132702031DD42E8312031367082D
:102D9200831603132602031DD42E8312031366081F
:102DA200831603132502031CFF2E2F17831203130E
:102DB200660883160313A502831203136708031C14
:102DC200670FE42EE72E83160313A6028312031362
:102DD2006808031C680FEE2EF12E83160313A70258
:102DE200831203136908031C690FF82EFB2E831646
:102DF2000313A80283120313831603130130A000E6
:102E02002008B107892E2808270426042504031D5B
:102E12002C1483120313EC1B342F0130831603137B
:102E2200A000031083120313EA0DEB0DEC0DED0D60
:102E320083160313A00B122FAF1F222F831203132B
:102E42006A14013083160313A0000310AC0DAD0DFC
:102E5200AE0DAF0DA00B262FFF30AA070318AB0A49
:102E6200FF30AB070A2F83160313B101AF1F532F95
:102E7200FF302C05A000FF302D05A100FF302E05EC
:102E8200A2007F302F05A30023082204210420047E
:102E9200031D4F2F831203136A1C532F8316031330
:102EA200B101B10A8316031331080319A72F0130A8
:102EB20083120313EA07003003180130EB070030D6
:102EC20003180130EC07003003180130ED076D1CC8
:102ED200A72F6A0883160313A000831203136B083B
:102EE20083160313A100831203136C0883160313C2
:102EF200A200831203136D0883160313A30001308B
:102F0200A400230DA30CA20CA10CA00CA40B822FD5
:102F1200230883120313ED0083160313220883127E
:102F22000313EC0083160313210883120313EB002F
:102F320083160313200883120313EA000130831659
:102F42000313AA070318AB0A0030AB078316031357
:102F52002B08803AFF0080307F02031DB22FFF3022
:102F62002A02031CC42FFF3083160313AA00003069
:102F7200AB00003083120313ED000030EC00003090
:102F8200EB000030EA00831603132B08803AFF009F
:102F920080307F02031DCF2F01302A020318E22F57
:102FA20083160313AA01AB01003083120313ED0051
:102FB2000030EC000030EB000030EA00831603130F
:102FC200A901831603132A08A0002008B000301CB0
:102FD200EE2F83120313EC17F42F7F30A00020088A
:102FE20083120313EC05831603133008A0000310A9
:0E2FF200200CA100210883120313ED00292EEC
:103182000A168A15DF2083160313111408000A1683
:103192008A15DF2083160313111508000A168A15F3
:1031A200DF2070088312031393000800640080017B
:1031B200840A0406031900340406D828831603136C
:1031C2001419DF2811081F3903190800DF287308B2
:1031D200720471047004031908008030F3060800B9
:1031E200F100F0013A3071020318FD28303071020B
:1031F200031CFD28F001F00A700C0800F100831294
:10320200031308177108860088170D30F000F00BC1
:1032120008298312031388130800831203138601FB
:10322200831603178901831603138601831203137E
:103232008801831603138801831203138501831601
:103242000313850183160317880108000030F0007C
:10325200F1000A128A11C1200A168A150130F00003
:103262000030F1000A128A11C1200A168A150630AE
:10327200F5003030F400F40B3C29F50B3C2900003A
:10328200080074037504031D562976087F3EF80072
:1032920077080318013E003EF9007908F10078082A
:1032A200F0000A128A11C120080002307406750467
:1032B200031D08007608BF3E4829F401F501701C81
:1032C20068297208F4070318F50A7308F507013034
:1032D2000310F20DF30DFF3E031D692901300310A7
:1032E200F10CF00CFF3E031D702970087104031DE0
:1032F20060297508F1007408F0000800803083121C
:103302000313E9066D08D5006C08D4006B08D300DE
:103312006A08D2006908D9006808D8006708D7008F
:103322006608D6000A168A11422183120313550831
:10333200E9005408E8005308E7005208E6000800D4
:10334200F800F401F5017008F200F3017208F600CA
:103352007308F700781CB3297608F4070318F50AF6
:103362007708F50701300310F60DF70DFF3E031D38
:10337200B4290310F80C7808031DAB297508F10075
:103382007408F00008000A168A15DF200A168A154A
:103392008316031391150A168A15DF200A168A1559
:1033A200831203131308F200F3017208F400730886
:1033B200F5000A168A15DF200A168A1570037104B1
:1033C200031DE729831603139112EA2983160313B7
:1033D200911611167508F1007408F00008007008C3
:1033E200710403191D2AF501F50AF11B042A0130A3
:1033F2000310F00DF10DFF3E031DF9290130F40019
:103402007408F507F62971087302031D0A2A700869
:103412007202031C122A7008F2027108031CF303E1
:10342200F30201300310F10CF00CFF3E031D132ACE
:103432000130F502031D042A7308F1007208F0003E
:10344200080028308312031394008316031391019A
:10345200831203132008A4002108A5002208A60055
:103462002308A70002300310A40DA50DA60DA70D79
:10347200FF3E031D342A2708F3002608F200250820
:10348200F1002408F0000030F7003D30F60009306A
:10349200F5000030F4000A168A15BF237008FF3EBB
:1034A2008316031393009401871507160800FB0186
:1034B200FC017608770403198F2AFD01FD0AF71B28
:1034C2006E2A01300310F60DF70DFF3E031D632A2D
:1034D2000130FA007A08FD07602A01300310FB0D63
:1034E200FC0DFF3E031D6F2A77087902031D7B2A1C
:1034F20076087802031C842A7608F8027708031CEF
:10350200F903F9027B1401300310F70CF60CFF3EAD
:10351200031D852A0130FD02031D6E2A7C08F70077
:103522007B08F6000800F701F80177087207F5003A
:103532007308F4000318F40AF71BF4037408F60086
:10354200760883120313FF00750884000A128A1199
:1035520003200A168A15003A031908007708720731
:10356200F5007308F4000318F40AF71BF403740857
:10357200F600760883120313FF00750884000A120E
:103582008A1103200A168A150A168A15FF200A16BE
:103592008A150130F7070318F80A0030F807962A4F
:1035A20000307005F80000307105F90080307205B6
:1035B200FA007F307305FB007B087A0479047804F3
:1035C200031DEB2A0030F3000030F2000030F1005E
:1035D2000030F00000307405F80000307505F90085
:1035E20080307605FA007F307705FB007B087A048D
:1035F20079047804031D052B0030F7000030F60033
:103602000030F5000030F40077087306031D132B19
:1036120076087206031D132B75087106031D132B02
:10362200740870060319172B03100800031408000E
:10363200F601F31F232BF209F309F20A0319F30A25
:10364200F601F60AF11F2A2BF009F109F00A031913
:10365200F10A700871040319572BF501F50AF11BE1
:103662003E2B01300310F00DF10DFF3E031D332BF5
:103672000130F4007408F507302B71087302031D42
:10368200442B70087202031C4C2B7008F202710862
:10369200031CF303F30201300310F10CF00CFF3EA4
:1036A200031D4D2B0130F502031D3E2B7608031935
:1036B2005F2BF209F309F20A0319F30A7308F10006
:1036C2007208F000080083120313A101F81F702B87
:1036D200F709F809F70A0319F80AA101A10AFA1F62
:1036E2007B2BF909FA09F90A0319FA0A0130FB00DE
:1036F2007B08A106A201A301770878040319B22B63
:10370200A001A00AF81B912B01300310F70DF80D50
:10371200FF3E031D862B0130FB007B08A007832B95
:1037220001300310A20DA30DFF3E031D922B78085A
:103732007A02031D9E2B77087902031CA72B7708B8
:10374200F9027808031CFA03FA022214013003106A
:10375200F80CF70CFF3E031DA82B0130A002031D3D
:10376200912B21080319BA2BA209A309A20A031952
:10377200A30A2308F8002208F70008000030FC0022
:103782000030FB000030FA000030F90073087204C8
:10379200710470040319142CFD01FD0AF31BDF2BC5
:1037A2000130F8000310F00DF10DF20DF30DF80BDE
:1037B200D32B0130F8007808FD07CF2B0130F80039
:1037C2000310F90DFA0DFB0DFC0DF80BE12B73083C
:1037D2007702031DF62B72087602031DF62B710881
:1037E2007502031DF62B70087402031C072C700867
:1037F200F4027108031C710FF5027208031C720FA8
:10380200F6027308031C730FF702791401300310D8
:10381200F30CF20CF10CF00CFF3E031D082C0130EE
:10382200FD02031DDF2B7C08F3007B08F2007A08FF
:10383200F1007908F0000800F200442C3030402CEE
:103842003130402C3230402C3330402C3430402C3C
:103852003530402C3630402C3730402C3830402C1C
:103862003930402C4130402C4230402C4330402CE7
:103872004430402C4530402C4630402CD630F000AD
:103882007008F3007E2C7208F000F1017108003A12
:1038920003194C2C3F2C7008003A03191F2C013AD3
:1038A2000319212C033A0319232C013A0319252C5D
:1038B200073A0319272C013A0319292C033A031951
:1038C2002B2C013A03192D2C0F3A03192F2C013AF4
:1038D2000319312C033A0319332C013A0319352CFD
:1038E200073A0319372C013A0319392C033A031901
:1038F2003B2C013A03193D2C3F2C7308080003109E
:1039020083120313530D540DD5005508DB005B08D9
:10391200031D942C0030D4000030D3000030D200BC
:103922000030D10008005108D5005208D6005308D3
:10393200D7005408D8001F300310D80CD70CD60C6F
:10394200D50CFF3E031D9D2C5508D9005908DA00FD
:10395200D317FF30D105FF30D205FF30D305003039
:10396200D4059630DB02DB1FCB2C5B08803A973EF6
:10397200031C8B2C01300310D40CD30CD20CD10CB1
:10398200FF3E031DBC2C0130D5005508DB0703198F
:10399200DE2CBB2C20305B0203188B2C5B08031936
:1039A200DE2C0130D5000310D10DD20DD30DD40D74
:1039B200D50BD42C0130DB02CF2C5A080319080096
:1039C200D109D209D309D409D10A0319D20A031998
:1039D200D30A0319D40A08001A30F500F830F400AB
:1039E200F40BF12CF50BF12C00003030F00000301C
:1039F200F1000A128A11C1200A168A150730F50051
:103A02007D30F400F40B032DF50B032D3030F00064
:103A12000030F1000A128A11C1200A168A152130DB
:103A2200F400F40B122D3030F0000030F1000A12D5
:103A32008A11C1200A168A152130F400F40B1F2DB9
:103A42003830F0000030F1000A128A11C1200A1643
:103A52008A151130F400F40B2C2D00000830F00010
:103A62000030F1000A128A11C1200A168A1511309B
:103A7200F400F40B3A2D00000130F0000030F100A8
:103A82000A128A11C1200A168A150430F500E430A0
:103A9200F400F40B4A2DF50B4A2D00000630F0001D
:103AA2000030F1000A128A11C1200A168A1511305B
:103AB200F400F40B5A2D00000C30F0000030F1003D
:103AC2000A128A11C1200A168A151130F400F40B69
:103AD200682D0000080000307005F8000030710504
:103AE200F90080307205FA007F307305FB007B0815
:103AF2007A0479047804031D862D0030F300003027
:103B0200F2000030F1000030F00000307405F800DF
:103B120000307505F90080307605FA007F307705B0
:103B2200FB007B087A0479047804031DA02D003081
:103B3200F7000030F6000030F5000030F400F31F0B
:103B4200C62D0030F8000030F9000030FA00803055
:103B5200FB007008F8027108031C710FB12DB22D21
:103B6200F9027208031C720FB72DB82DFA027308FE
:103B7200031C730FBD2DBE2DFB027B08F3007A08D8
:103B8200F2007908F1007808F000F71FEC2D003000
:103B9200F8000030F9000030FA008030FB007408B1
:103BA200F8027508031C750FD72DD82DF902760877
:103BB200031C760FDD2DDE2DFA027708031C770F2A
:103BC200E32DE42DFB027B08F7007A08F600790862
:103BD200F5007808F4008030F3068030F7067708A5
:103BE2007302031D080076087202031D080075089F
:103BF2007102031D08007408700208008312031387
:103C0200D1006E305102031C112F3F30A70000304B
:103C1200A6000030A5000030A4006430F600003099
:103C2200F7005108C200C3014208F8004308F90036
:103C32000A168A1558220A168A1576088312031361
:103C4200C40001300310C40DFF3E031D232E0310D8
:103C5200440D7D3E84000A128A110D200A168A152F
:103C6200C5000A128A110D200A168A15C6000A1208
:103C72008A110D200A168A15C7000A128A110D2010
:103C82000A168A15C8004808AB004708AA00460869
:103C9200A9004508A8000A128A15A2210A168A1547
:103CA200831203132708D0002608CF002508CE0070
:103CB2002408CD000A30F6000030F7005108C20097
:103CC200C3014208F2004308F3006430F000003000
:103CD200F1000A168A15F0210A168A157108F900F0
:103CE2007008F8000A168A1558220A168A157608EC
:103CF20083120313C40001300310C40DFF3E031DE1
:103D02007D2E0310440D593E84000A128A110D20A3
:103D12000A168A15C5000A128A110D200A168A157A
:103D2200C6000A128A110D200A168A15C7000A1245
:103D32008A110D200A168A15C8004808A7004708EC
:103D4200A6004608A5004508A4005008AB004F088D
:103D5200AA004E08A9004D08A8000A128A15A2213D
:103D62000A168A15831203132708CC002608CB00F3
:103D72002508CA002408C9000A30F0000030F1000A
:103D82005108C200C3014208F2004308F3000A16B8
:103D92008A15F0210A168A15700883120313C400CB
:103DA20001300310C40DFF3E031DD22E0310440D3B
:103DB200353E84000A128A110D200A168A15C500A2
:103DC2000A128A110D200A168A15C6000A128A11D1
:103DD2000D200A168A15C7000A128A110D200A162A
:103DE2008A15C8004808A7004708A6004608A5008B
:103DF2004508A4004C08AB004B08AA004A08A900D9
:103E02004908A8000A128A15A2218312031327085F
:103E1200C1002608C0002508BF002408BE00080013
:103E22000B305102031CBE2F3F30A7000030A6000A
:103E32000030A5000030A4000A30F6000030F70080
:103E42005108C200C3014208F8004308F9000A16EB
:103E52008A1558220A168A15760883120313C4009B
:103E620001300310C40DFF3E031D322F0310440D19
:103E7200593E84000A128A110D200A168A15C500BD
:103E82000A128A110D200A168A15C6000A128A1110
:103E92000D200A168A15C7000A128A110D200A1669
:103EA2008A15C8004808AB004708AA004608A900BE
:103EB2004508A8000A128A15A2210A168A15831239
:103EC20003132708D0002608CF002508CE002408B7
:103ED200CD000A30F0000030F1005108C200C301E9
:103EE2004208F2004308F3000A168A15F0210A1666
:103EF2008A15700883120313C40001300310C40D25
:103F0200FF3E031D7F2F0310440D353E84000A122D
:103F12008A110D200A168A15C5000A128A110D206F
:103F22000A168A15C6000A128A110D200A168A1567
:103F3200C7000A128A110D200A168A15C8004808FD
:103F4200A7004708A6004608A5004508A400500897
:103F5200AB004F08AA004E08A9004D08A8000A129B
:103F62008A15A221831203132708C1002608C00064
:103F72002508BF002408BE0008003F30A70000301B
:103F8200A6000030A5000030A4005108C200013094
:103F92000310C20DFF3E031DC92F0310420D353E13
:103FA20084000A128A110D200A168A15C3000A1209
:103FB2008A110D200A168A15C4000A128A110D20D0
:103FC2000A168A15C5000A128A110D200A168A15C8
:103FD200C6004608AB004508AA004408A9004308E9
:103FE200A8000A128A15A221831203132708C1000E
:0E3FF2002608C0002508BF002408BE000800F5
:04400E00D4E0FFFFFC
:00000001FF
