:020000040000FA
:100000000A128A11F52F00308A000408840A820738
:1000100000345334313420342034203453343234D7
:10002000203420342034203420345334333400340A
:100030003034783400342E340034433400345634B1
:0200400000348A
:100642000A128A113F2383160313111408000A1297
:100652008A113F2383160313111508000A128A1107
:100662003F23700883120313930008006400800183
:10067200840A0406031900340406382B8316031374
:1006820014193F2B11081F39031908003F2BF100E1
:100692008312031308177108860088170D30F000C3
:1006A200F00B512B831203138813080083120313D8
:1006B20086018316031789018316031386018312A9
:1006C2000313880183160313880183120313850120
:1006D200831603138501831603178801080000306F
:1006E200F000F1000A128A1116240A128A1101304E
:1006F200F0000030F1000A128A1116240A128A113F
:100702000630F5003030F400F40B852BF50B852B09
:100712000000080074037504031D9F2B76087F3EBA
:10072200F80077080318013E003EF9007908F1004D
:100732007808F0000A128A111624080002307406A2
:100742007504031D08007608BF3E912BF401F501E4
:10075200701CB12B7208F4070318F50A7308F50729
:1007620001300310F20DF30DFF3E031DB22B0130D9
:100772000310F10CF00CFF3E031DB92B700871043D
:10078200031DA92B7508F1007408F0000800F4009D
:10079200F201F3017208740784000A128A1103201D
:1007A2000A128A11003A03190800720874078400B9
:1007B2000A128A1103200A128A110A128A11482384
:1007C2000A128A110130F2070318F30A0030F30704
:1007D200CB2B0A128A113F230A128A1183160313A2
:1007E20091150A128A113F230A128A1183120313E6
:1007F2001308F200F3017208F4007308F5000A12FC
:100802008A113F230A128A1170037104031D0D2CF1
:10081200831603139112102C8316031391161116CB
:100822007508F1007408F00008008312031308131E
:100832000730F3007D30F200F20B1D2CF30B1D2C60
:100842008312031388170730F3007D30F200F20B96
:10085200282CF30B282C7008831203138600073010
:10086200F3007D30F200F20B342CF30B342C8312A4
:10087200031388130730F3007D30F200F20B3F2C94
:10088200F30B3F2C080028308312031394008316C5
:1008920003139101831203133308B7003408B8001D
:1008A2003508B9003608BA0002300310B70DB80D8A
:1008B200B90DBA0DFF3E031D562C3A08F300390854
:1008C200F2003808F1003708F0000030F7003D3040
:1008D200F6000930F5000030F4000A128A117A2479
:1008E2007008FF3E831603139300940187150716C1
:1008F20008000030FC000030FB000030FA0000303D
:10090200F90073087204710470040319CF2CFD01FD
:10091200FD0AF31B9A2C0130F8000310F00DF10DC3
:10092200F20DF30DF80B8E2C0130F8007808FD075C
:100932008A2C0130F8000310F90DFA0DFB0DFC0DA5
:10094200F80B9C2C73087702031DB12C72087602F7
:10095200031DB12C71087502031DB12C70087402BD
:10096200031CC22C7008F4027108031C710FF502FB
:100972007208031C720FF6027308031C730FF7024E
:10098200791401300310F30CF20CF10CF00CFF3E61
:10099200031DC32C0130FD02031D9A2C7C08F300B9
:1009A2007B08F2007A08F1007908F0000800F200F2
:1009B200FF2C3030FB2C3130FB2C3230FB2C33300F
:1009C200FB2C3430FB2C3530FB2C3630FB2C3730F3
:1009D200FB2C3830FB2C3930FB2C4130FB2C4230C5
:1009E200FB2C4330FB2C4430FB2C4530FB2C463097
:1009F200FB2CD630F0007008F300392D7208F0009D
:100A0200F1017108003A0319072DFA2C7008003A17
:100A12000319DA2C013A0319DC2C033A0319DE2CF0
:100A2200013A0319E02C073A0319E22C013A03199F
:100A3200E42C033A0319E62C013A0319E82C0F3A85
:100A42000319EA2C013A0319EC2C033A0319EE2C90
:100A5200013A0319F02C073A0319F22C013A03194F
:100A6200F42C033A0319F62C013A0319F82CFA2C48
:100A7200730808001A30F500F830F400F40B3F2D2B
:100A8200F50B3F2D00003030F0000030F1000A126B
:100A92008A1116240A128A110730F5007D30F400FB
:100AA200F40B512DF50B512D3030F0000030F100D8
:100AB2000A128A1116240A128A112130F400F40B48
:100AC200602D3030F0000030F1000A128A11162435
:100AD2000A128A112130F400F40B6D2D3830F00027
:100AE2000030F1000A128A1116240A128A111130FA
:100AF200F400F40B7A2D00000830F0000030F10011
:100B02000A128A1116240A128A111130F400F40B07
:100B1200882D00000130F0000030F1000A128A1125
:100B220016240A128A110430F500E430F400F40BA2
:100B3200982DF50B982D00000630F0000030F100E2
:100B42000A128A1116240A128A111130F400F40BC7
:100B5200A82D00000C30F0000030F1000A128A11BA
:100B620016240A128A111130F400F40BB62D00007B
:100B7200080083120313B300343084000630FF00F0
:100B820083138001840AFF0BC12D3308F800F90199
:100B92007808F0007908F1007708FA00FB017A087A
:100BA200F2007B08F3000A128A11A7230A128A11A3
:100BB200710883120313BB007008BA007608F800AC
:100BC200F90179083B02031DE82D78083A02031C5B
:100BD200FA2D3408013EB40035080318013E003EE8
:100BE200B50076083A02BA003B08031C3B03BB007F
:100BF200DF2D3B08F1003A08F0000A30F200003025
:100C0200F3000A128A11A7230A128A1171088312A9
:100C12000313BB007008BA007608F800F9017908DE
:100C22003B02031D162E78083A02031C282E3608B2
:100C3200013EB60037080318013E003EB7007608B1
:100C42003A02BA003B08031C3B03BB000D2E3B08D3
:100C5200F1003A08F0000A30F2000030F3000A1204
:100C62008A11A7230A128A11710883120313BB0087
:100C72007008BA007608F800F90179083B02031DF2
:100C8200442E78083A02031C562E3808013EB8005A
:100C920039080318013E003EB90076083A02BA004C
:100CA2003B08031C3B03BB003B2E343008000A12F6
:100CB2008A1157230A128A110A128A113B250A1233
:100CC2008A110A128A1170230A128A110130F40061
:100CD2000030F5000130F6000030F7000A128A11E8
:100CE2008B230A128A1101300A128A11C8230A12AE
:100CF2008A11003083120313B6000130B50086302A
:100D0200B400A030B3000A128A1144240A128A11D4
:100D12000A128A1121230A128A113130F00000309E
:100D2200F1000A128A112F230A128A110030F000F0
:100D3200F1000A128A11EA230A128A117008831238
:100D42000313BC003C08B2000A128A1128230A12BB
:100D52008A11823083120313BD00DD30BC00BC0B4C
:100D6200B02EBD0BB02E0A128A1121230A128A114B
:100D72005130F0000030F1000A128A112F230A12BA
:100D82008A110030F000F1000A128A11EA230A12D5
:100D92008A11700883120313BC003C08B1000A12C6
:100DA2008A1128230A128A11823083120313BD008A
:100DB200DD30BC00BC0BDB2EBD0BDB2EFF30831203
:100DC2000313BC003C08F6000530BD003D08F700E7
:100DD20031080A128A11BA250A128A1183120313E0
:100DE200BE003E08AF000A128A1121230A128A119C
:100DF2000730F0000030F1000A128A112F230A1284
:100E02008A110030F000F1000A128A11EA230A1254
:100E12008A11710883120313AD007008AC000A1224
:100E22008A1128230A128A11823083120313BD0009
:100E3200DD30BC00BC0B1B2FBD0B1B2F0230F4009E
:100E42000030F5000130F6000030F7000A128A1176
:100E52008B230A128A1110300A128A11C8230A122D
:100E62008A118312031332080A128A11D8240A1231
:100E72008A110A128A1148230A128A1182308312B5
:100E82000313BD00DD30BC00BC0B452FBD0B452F4D
:100E92000230F4000030F5000630F6000030F700B2
:100EA2000A128A118B230A128A11831203132F0842
:100EB2008400831300080A128A11D8240A128A11A4
:100EC2000A128A1148230A128A1113300A128A114D
:100ED200C8230A128A11831203132F08023E8400C8
:100EE200831300080A128A11D8240A128A110A12DC
:100EF2008A1148230A128A11831203132F08043E0F
:100F02008400831300080A128A11D8240A128A1153
:100F12000A128A1148230A128A1117300A128A11F8
:100F2200C8230A128A11DA3083120313BC003C0868
:100F3200F6007D30BD003D08F7002C080A128A1128
:100F4200BA250A128A1183120313BE003E08AE00AC
:100F52000230F4000030F5000C30F6000030F700EB
:100F62000A128A118B230A128A11831203132E0882
:100F72008400831300080A128A11D8240A128A11E3
:100F82000A128A1148230A128A11831203132E08A5
:100F9200023E8400831300080A128A11D8240A121E
:100FA2008A110A128A1148230A128A118312031320
:100FB2002E08043E8400831300080A128A11D824E2
:100FC2000A128A110A128A1148230A128A11DF3080
:100FD2000A128A1148230A128A1115300A128A113A
:100FE200C8230A128A11892E8313203084003330D9
:0E0FF2000A128A11372383010A128A11582E1F
:04400E00D4E0FFFFFC
:00000001FF
